{
  "transactions": [
    {
      "hash": "0xa9f2bfb64af74f9281411e7bf440d8875c1fcbf68a1d2723bf108e029074035f",
      "transactionType": "CALL",
      "contractName": null,
      "contractAddress": "0xba5ed099633d3b313e4d5f7bdc1305d3c28ba5ed",
      "function": "deployCreate2(bytes32,bytes)",
      "arguments": [
        "0xe2d0cd1eb640e973dae48681602b20ccb3526d3fc6a93791d26c0f31a94a82b4",
        "0x608060405260405161041d38038061041d83398101604081905261002291610268565b61002c8282610033565b5050610358565b61003c82610092565b6040516001600160a01b038316907fbc7cd75a20ee27fd9adebab32041f755214dbc6bffa90cc0225b39da2e5c2d3b90600090a280511561008657610081828261010e565b505050565b61008e610185565b5050565b806001600160a01b03163b6000036100cd57604051634c9c8ce360e01b81526001600160a01b03821660048201526024015b60405180910390fd5b7f360894a13ba1a3210667c828492db98dca3e2076cc3735a920a3ca505d382bbc80546001600160a01b0319166001600160a01b0392909216919091179055565b6060600080846001600160a01b03168460405161012b919061033c565b600060405180830381855af49150503d8060008114610166576040519150601f19603f3d011682016040523d82523d6000602084013e61016b565b606091505b50909250905061017c8583836101a6565b95945050505050565b34156101a45760405163b398979f60e01b815260040160405180910390fd5b565b6060826101bb576101b682610205565b6101fe565b81511580156101d257506001600160a01b0384163b155b156101fb57604051639996b31560e01b81526001600160a01b03851660048201526024016100c4565b50805b9392505050565b8051156102155780518082602001fd5b60405163d6bda27560e01b815260040160405180910390fd5b634e487b7160e01b600052604160045260246000fd5b60005b8381101561025f578181015183820152602001610247565b50506000910152565b6000806040838503121561027b57600080fd5b82516001600160a01b038116811461029257600080fd5b60208401519092506001600160401b038111156102ae57600080fd5b8301601f810185136102bf57600080fd5b80516001600160401b038111156102d8576102d861022e565b604051601f8201601f19908116603f011681016001600160401b03811182821017156103065761030661022e565b60405281815282820160200187101561031e57600080fd5b61032f826020830160208601610244565b8093505050509250929050565b6000825161034e818460208701610244565b9190910192915050565b60b7806103666000396000f3fe6080604052600a600c565b005b60186014601a565b605e565b565b600060597f360894a13ba1a3210667c828492db98dca3e2076cc3735a920a3ca505d382bbc5473ffffffffffffffffffffffffffffffffffffffff1690565b905090565b3660008037600080366000845af43d6000803e808015607c573d6000f35b3d6000fdfea2646970667358221220a8902ca9d39bed51e4d769a8410fee0999212fd865aed61050c3a609617a1c3564736f6c634300081c0033000000000000000000000000909bcac25b352bad195a02a91fb70cd318c713ce000000000000000000000000000000000000000000000000000000000000004000000000000000000000000000000000000000000000000000000000000000641794bb3c000000000000000000000000f9a9e6288c7a23b2b07f06f668084a1101835fa6000000000000000000000000cb444e90d8198415266c6a2724b7900fb12fc56e0000000000000000000000000000000000000000000000000000000005f5e10200000000000000000000000000000000000000000000000000000000"
      ],
      "transaction": {
        "from": "0xcef67989ae740cc9c92fa7385f003f84eaafd915",
        "to": "0xba5ed099633d3b313e4d5f7bdc1305d3c28ba5ed",
        "gas": "0xa7a75",
        "value": "0x0",
        "input": "0x26307668e2d0cd1eb640e973dae48681602b20ccb3526d3fc6a93791d26c0f31a94a82b4000000000000000000000000000000000000000000000000000000000000004000000000000000000000000000000000000000000000000000000000000004fd608060405260405161041d38038061041d83398101604081905261002291610268565b61002c8282610033565b5050610358565b61003c82610092565b6040516001600160a01b038316907fbc7cd75a20ee27fd9adebab32041f755214dbc6bffa90cc0225b39da2e5c2d3b90600090a280511561008657610081828261010e565b505050565b61008e610185565b5050565b806001600160a01b03163b6000036100cd57604051634c9c8ce360e01b81526001600160a01b03821660048201526024015b60405180910390fd5b7f360894a13ba1a3210667c828492db98dca3e2076cc3735a920a3ca505d382bbc80546001600160a01b0319166001600160a01b0392909216919091179055565b6060600080846001600160a01b03168460405161012b919061033c565b600060405180830381855af49150503d8060008114610166576040519150601f19603f3d011682016040523d82523d6000602084013e61016b565b606091505b50909250905061017c8583836101a6565b95945050505050565b34156101a45760405163b398979f60e01b815260040160405180910390fd5b565b6060826101bb576101b682610205565b6101fe565b81511580156101d257506001600160a01b0384163b155b156101fb57604051639996b31560e01b81526001600160a01b03851660048201526024016100c4565b50805b9392505050565b8051156102155780518082602001fd5b60405163d6bda27560e01b815260040160405180910390fd5b634e487b7160e01b600052604160045260246000fd5b60005b8381101561025f578181015183820152602001610247565b50506000910152565b6000806040838503121561027b57600080fd5b82516001600160a01b038116811461029257600080fd5b60208401519092506001600160401b038111156102ae57600080fd5b8301601f810185136102bf57600080fd5b80516001600160401b038111156102d8576102d861022e565b604051601f8201601f19908116603f011681016001600160401b03811182821017156103065761030661022e565b60405281815282820160200187101561031e57600080fd5b61032f826020830160208601610244565b8093505050509250929050565b6000825161034e818460208701610244565b9190910192915050565b60b7806103666000396000f3fe6080604052600a600c565b005b60186014601a565b605e565b565b600060597f360894a13ba1a3210667c828492db98dca3e2076cc3735a920a3ca505d382bbc5473ffffffffffffffffffffffffffffffffffffffff1690565b905090565b3660008037600080366000845af43d6000803e808015607c573d6000f35b3d6000fdfea2646970667358221220a8902ca9d39bed51e4d769a8410fee0999212fd865aed61050c3a609617a1c3564736f6c634300081c0033000000000000000000000000909bcac25b352bad195a02a91fb70cd318c713ce000000000000000000000000000000000000000000000000000000000000004000000000000000000000000000000000000000000000000000000000000000641794bb3c000000000000000000000000f9a9e6288c7a23b2b07f06f668084a1101835fa6000000000000000000000000cb444e90d8198415266c6a2724b7900fb12fc56e0000000000000000000000000000000000000000000000000000000005f5e10200000000000000000000000000000000000000000000000000000000000000",
        "nonce": "0x2f",
        "chainId": "0xa4b1"
      },
      "additionalContracts": [
        {
          "transactionType": "CREATE2",
          "address": "0x76fec07663c42193d675f9cae214dc18d84bdff4",
          "initCode": "0x608060405260405161041d38038061041d83398101604081905261002291610268565b61002c8282610033565b5050610358565b61003c82610092565b6040516001600160a01b038316907fbc7cd75a20ee27fd9adebab32041f755214dbc6bffa90cc0225b39da2e5c2d3b90600090a280511561008657610081828261010e565b505050565b61008e610185565b5050565b806001600160a01b03163b6000036100cd57604051634c9c8ce360e01b81526001600160a01b03821660048201526024015b60405180910390fd5b7f360894a13ba1a3210667c828492db98dca3e2076cc3735a920a3ca505d382bbc80546001600160a01b0319166001600160a01b0392909216919091179055565b6060600080846001600160a01b03168460405161012b919061033c565b600060405180830381855af49150503d8060008114610166576040519150601f19603f3d011682016040523d82523d6000602084013e61016b565b606091505b50909250905061017c8583836101a6565b95945050505050565b34156101a45760405163b398979f60e01b815260040160405180910390fd5b565b6060826101bb576101b682610205565b6101fe565b81511580156101d257506001600160a01b0384163b155b156101fb57604051639996b31560e01b81526001600160a01b03851660048201526024016100c4565b50805b9392505050565b8051156102155780518082602001fd5b60405163d6bda27560e01b815260040160405180910390fd5b634e487b7160e01b600052604160045260246000fd5b60005b8381101561025f578181015183820152602001610247565b50506000910152565b6000806040838503121561027b57600080fd5b82516001600160a01b038116811461029257600080fd5b60208401519092506001600160401b038111156102ae57600080fd5b8301601f810185136102bf57600080fd5b80516001600160401b038111156102d8576102d861022e565b604051601f8201601f19908116603f011681016001600160401b03811182821017156103065761030661022e565b60405281815282820160200187101561031e57600080fd5b61032f826020830160208601610244565b8093505050509250929050565b6000825161034e818460208701610244565b9190910192915050565b60b7806103666000396000f3fe6080604052600a600c565b005b60186014601a565b605e565b565b600060597f360894a13ba1a3210667c828492db98dca3e2076cc3735a920a3ca505d382bbc5473ffffffffffffffffffffffffffffffffffffffff1690565b905090565b3660008037600080366000845af43d6000803e808015607c573d6000f35b3d6000fdfea2646970667358221220a8902ca9d39bed51e4d769a8410fee0999212fd865aed61050c3a609617a1c3564736f6c634300081c0033000000000000000000000000909bcac25b352bad195a02a91fb70cd318c713ce000000000000000000000000000000000000000000000000000000000000004000000000000000000000000000000000000000000000000000000000000000641794bb3c000000000000000000000000f9a9e6288c7a23b2b07f06f668084a1101835fa6000000000000000000000000cb444e90d8198415266c6a2724b7900fb12fc56e0000000000000000000000000000000000000000000000000000000005f5e10200000000000000000000000000000000000000000000000000000000"
        }
      ],
      "isFixedGasLimit": false
    },
    {
      "hash": "0xafd446b7ff76c188df2c4175f01ad12ff724fc7fe01b5bd6a608ab597e31711a",
      "transactionType": "CALL",
      "contractName": "ERC1967Proxy",
      "contractAddress": "0x76fec07663c42193d675f9cae214dc18d84bdff4",
      "function": null,
      "arguments": null,
      "transaction": {
        "from": "0xcef67989ae740cc9c92fa7385f003f84eaafd915",
        "to": "0x76fec07663c42193d675f9cae214dc18d84bdff4",
        "gas": "0x14051",
        "value": "0x0",
        "input": "0x681bd37d000000000000000000000000af88d065e77c8cc2239327c5edb3a432268e5831",
        "nonce": "0x30",
        "chainId": "0xa4b1"
      },
      "additionalContracts": [],
      "isFixedGasLimit": false
    },
    {
      "hash": "0x5791a2b1e9a2972ec89c500cdf93cabde314ac07f22c5961b5e52bb16ee5f80a",
      "transactionType": "CALL",
      "contractName": "ERC1967Proxy",
      "contractAddress": "0x76fec07663c42193d675f9cae214dc18d84bdff4",
      "function": null,
      "arguments": null,
      "transaction": {
        "from": "0xcef67989ae740cc9c92fa7385f003f84eaafd915",
        "to": "0x76fec07663c42193d675f9cae214dc18d84bdff4",
        "gas": "0x167a8",
        "value": "0x0",
        "input": "0xbd5c5420000000000000000000000000af88d065e77c8cc2239327c5edb3a432268e583100000000000000000000000000000000000000000000000000000000000023f0",
        "nonce": "0x31",
        "chainId": "0xa4b1"
      },
      "additionalContracts": [],
      "isFixedGasLimit": false
    },
    {
      "hash": "0xee3b292bb436675b4f4e7a0cc9e05a2c8f9cffbb293c443853eb4d998cab37bc",
      "transactionType": "CALL",
      "contractName": "SafeProxyFactory",
      "contractAddress": "0x4e1dcf7ad4e460cfd30791ccc4f9c8a4f820ec67",
      "function": "createProxyWithNonce(address,bytes,uint256)",
      "arguments": [
        "0x41675C099F32341bf84BFc5382aF534df5C7461a",
        "0xb63e800d000000000000000000000000000000000000000000000000000000000000010000000000000000000000000000000000000000000000000000000000000000010000000000000000000000008ecd4ec46d4d2a6b64fe960b3d64e8b94b2234eb0000000000000000000000000000000000000000000000000000000000000140000000000000000000000000fd0732dc9e303f09fcef3a7388ad10a83459ec99000000000000000000000000000000000000000000000000000000000000000000000000000000000000000000000000000000000000000000000000000000000000000000000000000000005afe7a11e70000000000000000000000000000000000000000000000000000000000000000000000000000000000000000000001000000000000000000000000f9a9e6288c7a23b2b07f06f668084a1101835fa600000000000000000000000000000000000000000000000000000000000000648d0dc49f0000000000000000000000000000000000000000000000000000000000000020000000000000000000000000000000000000000000000000000000000000000100000000000000000000000076fec07663c42193d675f9cae214dc18d84bdff400000000000000000000000000000000000000000000000000000000",
        "54852266168592077707571397993549054378583937041092709675741567327712066515285"
      ],
      "transaction": {
        "from": "0xcef67989ae740cc9c92fa7385f003f84eaafd915",
        "to": "0x4e1dcf7ad4e460cfd30791ccc4f9c8a4f820ec67",
        "gas": "0x80064",
        "value": "0x0",
        "input": "0x1688f0b900000000000000000000000041675c099f32341bf84bfc5382af534df5c7461a00000000000000000000000000000000000000000000000000000000000000607945484e84507920e24b979470782558b62d42716e6c3dad11eab8da6649b15500000000000000000000000000000000000000000000000000000000000001e4b63e800d000000000000000000000000000000000000000000000000000000000000010000000000000000000000000000000000000000000000000000000000000000010000000000000000000000008ecd4ec46d4d2a6b64fe960b3d64e8b94b2234eb0000000000000000000000000000000000000000000000000000000000000140000000000000000000000000fd0732dc9e303f09fcef3a7388ad10a83459ec99000000000000000000000000000000000000000000000000000000000000000000000000000000000000000000000000000000000000000000000000000000000000000000000000000000005afe7a11e70000000000000000000000000000000000000000000000000000000000000000000000000000000000000000000001000000000000000000000000f9a9e6288c7a23b2b07f06f668084a1101835fa600000000000000000000000000000000000000000000000000000000000000648d0dc49f0000000000000000000000000000000000000000000000000000000000000020000000000000000000000000000000000000000000000000000000000000000100000000000000000000000076fec07663c42193d675f9cae214dc18d84bdff40000000000000000000000000000000000000000000000000000000000000000000000000000000000000000000000000000000000000000",
        "nonce": "0x32",
        "chainId": "0xa4b1"
      },
      "additionalContracts": [
        {
          "transactionType": "CREATE2",
          "address": "0xbc269bee81e49bda94d6d790dc1d6cd02d1c7046",
          "initCode": "0x608060405234801561001057600080fd5b506040516101e63803806101e68339818101604052602081101561003357600080fd5b8101908080519060200190929190505050600073ffffffffffffffffffffffffffffffffffffffff168173ffffffffffffffffffffffffffffffffffffffff1614156100ca576040517f08c379a00000000000000000000000000000000000000000000000000000000081526004018080602001828103825260228152602001806101c46022913960400191505060405180910390fd5b806000806101000a81548173ffffffffffffffffffffffffffffffffffffffff021916908373ffffffffffffffffffffffffffffffffffffffff1602179055505060ab806101196000396000f3fe608060405273ffffffffffffffffffffffffffffffffffffffff600054167fa619486e0000000000000000000000000000000000000000000000000000000060003514156050578060005260206000f35b3660008037600080366000845af43d6000803e60008114156070573d6000fd5b3d6000f3fea264697066735822122003d1488ee65e08fa41e58e888a9865554c535f2c77126a82cb4c0f917f31441364736f6c63430007060033496e76616c69642073696e676c65746f6e20616464726573732070726f766964656400000000000000000000000041675c099f32341bf84bfc5382af534df5c7461a"
        }
      ],
      "isFixedGasLimit": false
    }
  ],
  "receipts": [
    {
      "status": "0x1",
      "cumulativeGasUsed": "0xf7648",
      "logs": [
        {
          "address": "0x76fec07663c42193d675f9cae214dc18d84bdff4",
          "topics": [
            "0xbc7cd75a20ee27fd9adebab32041f755214dbc6bffa90cc0225b39da2e5c2d3b",
            "0x000000000000000000000000909bcac25b352bad195a02a91fb70cd318c713ce"
          ],
          "data": "0x",
          "blockHash": "0x477d954f11b7e3e9eca9d7c151b86330e100d3efe6c98a12403beff824626864",
          "blockNumber": "0x11ef6cc5",
          "transactionHash": "0xa9f2bfb64af74f9281411e7bf440d8875c1fcbf68a1d2723bf108e029074035f",
          "transactionIndex": "0xa",
          "logIndex": "0x0",
          "removed": false
        },
        {
          "address": "0x76fec07663c42193d675f9cae214dc18d84bdff4",
          "topics": [
            "0x8be0079c531659141344cd1fd0a4f28419497f9722a3daafe3b4186f6b6457e0",
            "0x0000000000000000000000000000000000000000000000000000000000000000",
            "0x000000000000000000000000cef67989ae740cc9c92fa7385f003f84eaafd915"
          ],
          "data": "0x",
          "blockHash": "0x477d954f11b7e3e9eca9d7c151b86330e100d3efe6c98a12403beff824626864",
          "blockNumber": "0x11ef6cc5",
          "transactionHash": "0xa9f2bfb64af74f9281411e7bf440d8875c1fcbf68a1d2723bf108e029074035f",
          "transactionIndex": "0xa",
          "logIndex": "0x1",
          "removed": false
        },
        {
          "address": "0x76fec07663c42193d675f9cae214dc18d84bdff4",
          "topics": [
            "0xc7f505b2f371ae2175ee4913f4499e1f2633a7b5936321eed1cdaeb6115181d2"
          ],
          "data": "0x0000000000000000000000000000000000000000000000000000000000000001",
          "blockHash": "0x477d954f11b7e3e9eca9d7c151b86330e100d3efe6c98a12403beff824626864",
          "blockNumber": "0x11ef6cc5",
          "transactionHash": "0xa9f2bfb64af74f9281411e7bf440d8875c1fcbf68a1d2723bf108e029074035f",
          "transactionIndex": "0xa",
          "logIndex": "0x2",
          "removed": false
        },
        {
          "address": "0xba5ed099633d3b313e4d5f7bdc1305d3c28ba5ed",
          "topics": [
            "0xb8fda7e00c6b06a2b54e58521bc5894fee35f1090e5a3bb6390bfe2b98b497f7",
            "0x00000000000000000000000076fec07663c42193d675f9cae214dc18d84bdff4",
            "0xc2b1fbba25e6c11facade3f704143ba3486d5516544d32174455dd60f630bbf3"
          ],
          "data": "0x",
          "blockHash": "0x477d954f11b7e3e9eca9d7c151b86330e100d3efe6c98a12403beff824626864",
          "blockNumber": "0x11ef6cc5",
          "transactionHash": "0xa9f2bfb64af74f9281411e7bf440d8875c1fcbf68a1d2723bf108e029074035f",
          "transactionIndex": "0xa",
          "logIndex": "0x3",
          "removed": false
        }
      ],
      "logsBloom": "0x00020000000000000004000000000000400000000000000000800000000000000000000000000000000000002000000000000200000000000002000000000020000000000000000000000000000002000001000000000000000000000000000000000000020010000000000000000800000000000001000000000004000000400100000000000000000800000000100000000000800080000000000000000000000080000040000000000000000000000000000000000000000000000000000000000020000000000200000000000000000000002004002000000000000020000000000000000000000002000000000800000000000040000010000000000000",
      "type": "0x2",
      "transactionHash": "0xa9f2bfb64af74f9281411e7bf440d8875c1fcbf68a1d2723bf108e029074035f",
      "transactionIndex": "0xa",
      "blockHash": "0x477d954f11b7e3e9eca9d7c151b86330e100d3efe6c98a12403beff824626864",
      "blockNumber": "0x11ef6cc5",
      "gasUsed": "0x77b05",
      "effectiveGasPrice": "0x989680",
      "from": "0xcef67989ae740cc9c92fa7385f003f84eaafd915",
      "to": "0xba5ed099633d3b313e4d5f7bdc1305d3c28ba5ed",
      "contractAddress": null,
      "gasUsedForL1": "0x39406",
      "l1BlockNumber": "0x14bb4df"
    },
    {
      "status": "0x1",
      "cumulativeGasUsed": "0x91a4a",
      "logs": [],
      "logsBloom": "0x00000000000000000000000000000000000000000000000000000000000000000000000000000000000000000000000000000000000000000000000000000000000000000000000000000000000000000000000000000000000000000000000000000000000000000000000000000000000000000000000000000000000000000000000000000000000000000000000000000000000000000000000000000000000000000000000000000000000000000000000000000000000000000000000000000000000000000000000000000000000000000000000000000000000000000000000000000000000000000000000000000000000000000000000000000000",
      "type": "0x2",
      "transactionHash": "0xafd446b7ff76c188df2c4175f01ad12ff724fc7fe01b5bd6a608ab597e31711a",
      "transactionIndex": "0x5",
      "blockHash": "0x79aaca7d364fecd3f43cc35dcdab1bdc82e61260b023c6d97d443f2a0831e8c2",
      "blockNumber": "0x11ef6ccb",
      "gasUsed": "0x13e93",
      "effectiveGasPrice": "0x989680",
      "from": "0xcef67989ae740cc9c92fa7385f003f84eaafd915",
      "to": "0x76fec07663c42193d675f9cae214dc18d84bdff4",
      "contractAddress": null,
      "gasUsedForL1": "0x7757",
      "l1BlockNumber": "0x14bb4df"
    },
    {
      "status": "0x1",
      "cumulativeGasUsed": "0x4c3af",
      "logs": [],
      "logsBloom": "0x00000000000000000000000000000000000000000000000000000000000000000000000000000000000000000000000000000000000000000000000000000000000000000000000000000000000000000000000000000000000000000000000000000000000000000000000000000000000000000000000000000000000000000000000000000000000000000000000000000000000000000000000000000000000000000000000000000000000000000000000000000000000000000000000000000000000000000000000000000000000000000000000000000000000000000000000000000000000000000000000000000000000000000000000000000000",
      "type": "0x2",
      "transactionHash": "0x5791a2b1e9a2972ec89c500cdf93cabde314ac07f22c5961b5e52bb16ee5f80a",
      "transactionIndex": "0x3",
      "blockHash": "0xab3431997bba81e8225d17e6de85a1c16ae91c7ea78df3fa7194ba2313c005f3",
      "blockNumber": "0x11ef6cd1",
      "gasUsed": "0x15a06",
      "effectiveGasPrice": "0x989680",
      "from": "0xcef67989ae740cc9c92fa7385f003f84eaafd915",
      "to": "0x76fec07663c42193d675f9cae214dc18d84bdff4",
      "contractAddress": null,
      "gasUsedForL1": "0x91f3",
      "l1BlockNumber": "0x14bb4df"
    },
    {
      "status": "0x1",
      "cumulativeGasUsed": "0x893c7",
      "logs": [
        {
          "address": "0xbc269bee81e49bda94d6d790dc1d6cd02d1c7046",
          "topics": [
            "0xecdf3a3effea5783a3c4c2140e677577666428d44ed9d474a0b3a4c9943f8440",
            "0x00000000000000000000000076fec07663c42193d675f9cae214dc18d84bdff4"
          ],
          "data": "0x",
          "blockHash": "0x9d96206197f76aad0a088bbcc5bf404527c9e572236533cb7eaf2084524601d7",
          "blockNumber": "0x11ef6cd7",
          "transactionHash": "0xee3b292bb436675b4f4e7a0cc9e05a2c8f9cffbb293c443853eb4d998cab37bc",
          "transactionIndex": "0x5",
          "logIndex": "0x0",
          "removed": false
        },
        {
          "address": "0xbc269bee81e49bda94d6d790dc1d6cd02d1c7046",
          "topics": [
            "0x141df868a6331af528e38c83b7aa03edc19be66e37ae67f9285bf4f8e3c6a1a8",
            "0x0000000000000000000000004e1dcf7ad4e460cfd30791ccc4f9c8a4f820ec67"
          ],
          "data": "0x000000000000000000000000000000000000000000000000000000000000008000000000000000000000000000000000000000000000000000000000000000010000000000000000000000008ecd4ec46d4d2a6b64fe960b3d64e8b94b2234eb000000000000000000000000fd0732dc9e303f09fcef3a7388ad10a83459ec990000000000000000000000000000000000000000000000000000000000000001000000000000000000000000f9a9e6288c7a23b2b07f06f668084a1101835fa6",
          "blockHash": "0x9d96206197f76aad0a088bbcc5bf404527c9e572236533cb7eaf2084524601d7",
          "blockNumber": "0x11ef6cd7",
          "transactionHash": "0xee3b292bb436675b4f4e7a0cc9e05a2c8f9cffbb293c443853eb4d998cab37bc",
          "transactionIndex": "0x5",
          "logIndex": "0x1",
          "removed": false
        },
        {
          "address": "0x4e1dcf7ad4e460cfd30791ccc4f9c8a4f820ec67",
          "topics": [
            "0x4f51faf6c4561ff95f067657e43439f0f856d97c04d9ec9070a6199ad418e235",
            "0x000000000000000000000000bc269bee81e49bda94d6d790dc1d6cd02d1c7046"
          ],
          "data": "0x00000000000000000000000041675c099f32341bf84bfc5382af534df5c7461a",
          "blockHash": "0x9d96206197f76aad0a088bbcc5bf404527c9e572236533cb7eaf2084524601d7",
          "blockNumber": "0x11ef6cd7",
          "transactionHash": "0xee3b292bb436675b4f4e7a0cc9e05a2c8f9cffbb293c443853eb4d998cab37bc",
          "transactionIndex": "0x5",
          "logIndex": "0x2",
          "removed": false
        }
      ],
      "logsBloom": "0x00000000000000000000000000000000800000000000000000000000000000000000000000000000000000000000000000000000000000000000000000000000000010000000000000000000000000000000000000000008004000000000000000000000000010000500012040000000100000000100000000000000000000000800010000000200000000000000000000000000800000000000000000000000000000000000000000100000000000000000040000000000000000000000000000000000000000000000000000000000000000002000000000000000000000000000080000010000000000000000100820000000000000000000000000000000",
      "type": "0x2",
      "transactionHash": "0xee3b292bb436675b4f4e7a0cc9e05a2c8f9cffbb293c443853eb4d998cab37bc",
      "transactionIndex": "0x5",
      "blockHash": "0x9d96206197f76aad0a088bbcc5bf404527c9e572236533cb7eaf2084524601d7",
      "blockNumber": "0x11ef6cd7",
      "gasUsed": "0x5d247",
      "effectiveGasPrice": "0x989680",
      "from": "0xcef67989ae740cc9c92fa7385f003f84eaafd915",
      "to": "0x4e1dcf7ad4e460cfd30791ccc4f9c8a4f820ec67",
      "contractAddress": null,
      "gasUsedForL1": "0x166d4",
      "l1BlockNumber": "0x14bb4df"
    }
  ],
  "libraries": [],
  "pending": [],
  "returns": {},
  "timestamp": 1738256526,
  "chain": 42161,
  "commit": "ca9abc6"
}